:020000040800F2
:10000000A0170020A50100088B1A0008F9190008A4
:10001000891A0008B7020008A33500080000000094
:10002000000000000000000000000000E91D0008C2
:1000300029030008000000006B1D0008F51D0008E2
:10004000BF010008BF010008BF010008BF01000890
:10005000BF010008BF010008BF010008BF01000880
:10006000BF010008BF010008BF010008BF01000870
:10007000BF010008BF010008BF010008BF01000860
:10008000BF010008BF010008BF0100080000000018
:10009000000000000000000000000000BF01000898
:1000A000BF010008BF010008BF010008BF01000830
:1000B000BF0100080000000000000000BF010008B0
:1000C000BF010008BF010008BF010008BF01000810
:1000D000BF010008BF010008BF010008BF01000800
:1000E000BF010008BF010008000000000000000080
:1000F0000000000000000000000000000000000000
:1001000000000000000000000000000000000000EF
:100110000000000000000000BF0100080000000017
:10012000BF010008BF010008BF010008BF010008AF
:10013000BF010008000000000000000000000000F7
:10014000BF010008BF010008BF01000831350008E9
:10015000BF010008BF010008BF010008BF0100087F
:10016000BF010008BF0100080000000000000000FF
:1001700000000000BF0100080000000000000000B7
:10018000BF010008BF010008BF010008DFF810D060
:1001900000F054F800480047B1390008AFF3008080
:1001A000A01700200648804706480047FEE7FEE704
:1001B000FEE7FEE7FEE7FEE7FEE7FEE7FEE7FEE717
:1001C000691E00088D01000840EA01039B0703D067
:1001D00009E008C9121F08C0042AFAD203E011F886
:1001E000013B00F8013B521EF9D27047D2B201E048
:1001F00000F8012B491EFBD270470022F6E710B52C
:1002000013460A4604461946FFF7F0FF204610BD84
:1002100030B50B46014600202022012409E021FAD6
:1002200002F59D4205D303FA02F5491B04FA02F5D3
:100230002844151EA2F10102F1DC30BD064C074D29
:1002400006E0E06840F0010394E8070098471034A6
:10025000AC42F6D3FFF79EFFA43C0008C43C000864
:1002600070B58C1810F8015B15F0070301D110F878
:10027000013B2A1106D110F8012B03E010F8016BA5
:1002800001F8016B5B1EF9D12B0705D40023521E28
:100290000DD401F8013BFAE710F8013BCB1A921C90
:1002A00003E013F8015B01F8015B521EF9D5A1428E
:1002B000D8D3002070BDFEE70020704700207047B3
:1002C00010B500220449054801F0D4FE0449034852
:1002D00001F0CBFE002010BDB80D0020AC010020C5
:1002E000D009002010B50146034801F0BEFE0248C7
:1002F00001F0A6FE002010BDAC01002000207047D8
:10030000084A10B5D2F8BC22526D0AB1012010BDC6
:100310000A460146034801F0ADFEBDE81040014821
:1003200001F006BFAC0100207047704770B504466D
:1003300000F0E8F80546601C02D004480078044448
:1003400000F0E0F8401BA042FAD370BD7800002016
:100350002DE9FC4FDFF884A1002301250AF1040BED
:1003600003244FF00F0C0BF1040EB0E005FA03F775
:100370003A406ED04E68012E05D0022E03D0112EC9
:1003800001D0122E17D1D0F808905E0004FA06F8BA
:1003900029EA08090096D1F80C8008FA06F848EA1C
:1003A0000908C0F808804668BE430F79C7F30017F4
:1003B0009F4037434760C6684FEA430804FA08F78E
:1003C000BE4301978F6807FA08F73743C7604E6846
:1003D000022E01D0122E10D1DE0800EB8606009608
:1003E000366A5F074FEAD7690CFA09F7BE430F690F
:1003F00007FA09F73743009E37620668019FBE433C
:100400000F7907F0030707FA08F7374307604E68CC
:10041000F6005BD5324E376E47F001073766366E11
:1004200023F0030706F0010600962E4E3E44B14627
:10043000B6689F074FEA17780CFA08F7BE43B0F189
:10044000904F04D0284FB84204D101270DE0002777
:100450000BE03BE0254FB84201D1022705E0244FD5
:10046000B84201D1032700E0072707FA08F737430E
:10047000C9F80870DAF800605746D1F8048096434E
:100480005FEAC83800D516433E60DBF800605F467F
:10049000D1F8048096435FEA883800D516433E6061
:1004A000DEF800607746D1F8048096435FEAC828FA
:1004B00000D516433E60094F0C373E68D1F80480E2
:1004C00096435FEA882800D516433E605B1C0E68A1
:1004D0003246DE407FF44AAF00F00CB80004014021
:1004E00000100240000001400004004800080048DD
:1004F000000C00481CBCBDE8E08F0069084000D03B
:100500000120704701488068704700007800002093
:1005100002488168027811448160704778000020A9
:1005200010B50024032000F071F8002000F008F856
:1005300008B1012401E000F025F8204610BD0000BC
:1005400070B50E4E05460024307898B14FF47A719C
:10055000B1FBF0F00A490968B1FBF0F001F038FA9C
:1005600040B9102D06D200222946501E00F02EF868
:10057000756000E00124204670BD00007800002076
:1005800074000020094808B5016E41F001010166C0
:10059000016E01F001010091816D41F08051816592
:1005A000806D00F08050009008BD000000100240F7
:1005B000002809DB00F01F02012191404009800062
:1005C00000F1E020C0F8001170470000F0B40E4BBD
:1005D0001B680C46C3F30223C3F10705042D00D9A1
:1005E0000425191D072901D2002300E0DB1E012686
:1005F00006FA05F1491E214099409E40761E16409C
:100600003143F0BC02F0E2BF0CED00E0064900F01F
:10061000070208684FF6FF03184040EA0220034A29
:1006200010430860704700000CED00E00000FA0580
:1006300001220168C0F8E822002280F8E02231F8A7
:10064000540F40F001000880088840F00200088044
:100650001046704770B50F4D044669B101290AD1A3
:10066000D4F8F00202F0C7F8A069002803D0286887
:1006700040F00600286070BDA06928B101F0BCFB05
:10068000286820F006002860D4F8F002BDE8704029
:1006900002F038B810ED00E010B50C0607D501F0F7
:1006A000070101EB810100EBC100283005E001EBFF
:1006B000810100EBC10000F5B47099B232B10122A2
:1006C00002730181190C4181002010BD00220273C8
:1006D000C180F9E701EB810200EBC202D0F8F00221
:1006E000D26B01F0DFBE01EB810200EBC202D0F859
:1006F000F002D2F87C2101F02ABF70B504460B0647
:1007000001F0070000EB800104EBC1014FF0010292
:100710004FF0000503D581F82920283103E081F846
:10072000695101F5B471087094F8A802012808D045
:1007300084F8A822206802F08AFB84F8A8520020DE
:1007400070BD022070BD70B5044601F00F006268F4
:10075000904201D9012070BD0B0601F0070000EBAB
:10076000800104EBC1014FF001024FF0000503D5F9
:1007700081F82920283103E081F8695101F5B4712D
:100780008D70087094F8A802012808D084F8A82277
:10079000206802F004FC84F8A852002070BD0220FA
:1007A00070BD2DE9F04704685FEA42480B788D6917
:1007B000B4F850804FF0000C4BF68F7748F280066B
:1007C00048F68F7948F2C00A444428D540F20248DE
:1007D00008EBC30834F80840C4F30904A54203D366
:1007E0002D1B8D6102D00BE0C1F818C0D0F800C0FD
:1007F0003CF823503D4085F4005535432CF82350F8
:10080000520609D50B78056835F8232002EA09025B
:1008100042EA0A0225F8232074B30A8927E040F24D
:10082000064808EBC30834F80840C4F30904A5429D
:1008300003D32D1B8D6102D00BE0C1F818C0D0F896
:1008400000C03CF823503D4085F4005535432CF85A
:100850002350520609D40D78036833F8252002EAA4
:10086000090242EA0A0223F825202CB14A89496983
:100870000068234602F065FE2046BDE8F0872DE9BA
:10088000F04705460C4600685FEA42681646227843
:10089000D4F818C0B0F850804FF0000148F68F77B8
:1008A0004CF280094FF6FF734FF4004A404476D56E
:1008B00040F2024808EBC20830F80800C0F3090013
:1008C000844514D9BCEB000CC4F818C010D07604D1
:1008D00008D5D5F800C03CF822603E4046EA09063B
:1008E0002CF8226094F82420012A11D0D0E0A161D4
:1008F00011462846FFF7EEFE700408D521782A68D5
:1009000032F82100384040EA090022F82100BFE017
:10091000626902446261E2690244E2612669226A14
:10092000B24202D33046111A03E084F824100AB10F
:1009300010462162617811B1012923D02BE029688A
:10094000B1F850201144227801EBC20101F20241BA
:1009500048B13E280FD84208C60700D0521C03EA0F
:1009600082220A8017E00A8822F4F8420A800A8864
:1009700042F40042F5E74209C30600D1521E4AEA9A
:100980008222EEE72968B1F850201144227801EB69
:10099000C201A1F8020483B2228975E0FFE740F2A8
:1009A000064808EBC20830F80800C0F30900844587
:1009B00014D3BCEB000CC4F818C010D0760408D4D3
:1009C000D5F800C03CF822603E4046EA09062CF803
:1009D000226094F82420012A11D059E0A161114627
:1009E0002846FFF777FE700452D42278296831F840
:1009F0002200384040EA090021F8220048E06269FC
:100A000002446261E2690244E2612669226AB242FA
:100A100003D33046111A216204E00AB11046216264
:100A200084F824106278296812B1012A22D029E0C2
:100A3000B1F850201144227801EBC20101F20641C5
:100A400048B13E280FD84208C60700D0521C03EA1E
:100A500082220A8016E00A8822F4F8420A800A8874
:100A600042F40042F5E74209C30600D1521E4AEAA9
:100A70008222EEE7B1F850201144227801EBC20146
:100A8000A1F80604628983B26169286802F076FDE4
:100A90002278296831F8220048F6BF73184080F0A8
:100AA000300048F28003184321F822000020BDE8FE
:100AB000F08701F0070101EB810100EBC100D0F8E4
:100AC000840170472DE9F04104460F0601F007004C
:100AD00000EB800104EBC1014FF001064FF000056F
:100AE00003D581F82960283103E081F8695101F5C7
:100AF000B47108700A61CB704A7802B1C881022BC8
:100B000000D10D7194F8A802012809D084F8A862D8
:100B1000206802F06EF8284684F8A852BDE8F081FB
:100B20000220FBE770B50C4601F0070505EB8501D7
:100B300000EBC101C1E95F230022C1F8842181F8E3
:100B4000692181F8685101F5B4716207006802F00B
:100B50007BFA002070BD70B504460D4601F0070019
:100B60006168884201D9012070BD29064FF0000656
:100B70004FF0010207D500EB800104EBC10181F8C1
:100B80002920283107E005EB850104EBC10181F83C
:100B9000696101F5B4718A70087094F8A80201289F
:100BA00007D084F8A822206802F035FA680702D03E
:100BB00006E0022070BD04F52C71206802F0EDF90A
:100BC00084F8A862002070BD70B50C4601F00705DE
:100BD00005EB850100EBC101C1E90F23012281F87A
:100BE0004C208B6400234B6481F8292001F8285F96
:100BF0006207006802F028FA002070BD10B50446B4
:100C0000006802F09BFC000402D5204600F03EFF85
:100C1000206802F093FC40050CD5206830F8441F92
:100C200021F480610180204600F05CF9002120461B
:100C300000F084F9206802F081FC400405D52068AA
:100C400030F8441F21F480410180206802F076FCD6
:100C5000800405D5206830F8441F21F4005101803C
:100C6000206802F06BFCC0041FD5206830F8401FDC
:100C700021F004010180206830F8401F21F00801B4
:100C8000018094F8E002012806D1002084F8E002F7
:100C900001462046FFF7DEFC204600F037F92068C9
:100CA00030F8441F21F480510180206802F046FC96
:100CB000000514D5206830F8401F41F0080101807C
:100CC000206830F8441F21F400610180206830F86A
:100CD000401F41F004010180204600F05FF92068C8
:100CE00002F02CFC00060BD5206830F8441F21F0E0
:100CF0008001018094F8E002E0B1204600F04EF956
:100D0000206802F01BFC800508D5206830F8441FDD
:100D100021F400710180204600F00CF9206802F0F7
:100D20000DFCC00505D5206830F8441F21F4807102
:100D3000018010BD206830F8401F41F0040101809F
:100D4000206830F8401F41F008010180012084F83C
:100D5000E0022068B0F854003C2101EA9000C4F899
:100D6000E40201212046FFF775FCC9E72DE9F041B7
:100D700086B0040004D094F8A902002520B108E050
:100D8000012006B0BDE8F08184F8A852204600F0AA
:100D900061F8032084F8A902206802F0F6F804F153
:100DA0001001142288466846FFF70EFA94E80F00F7
:100DB00002F04BF80226D0BB0021206802F0D5FBE0
:100DC000002001270FE000BF00EB800104EBC10110
:100DD00081F8297001F8280FC881CD700D614D612F
:100DE000401CC0B28D6161688142EDD8002011E0E5
:100DF00000EB800104EBC10181F8695181F86801C1
:100E000081F86B51C1F87851C1F87C51401CC0B2D7
:100E1000C1F8805161688142EAD81422414668468F
:100E2000FFF7D2F994E80F0002F0A6F810B184F8A9
:100E3000A962A5E784F8245084F8A972E069012822
:100E400002D12046FFF7F4FB206802F08EF8002064
:100E500097E700002DE9F04186B00446142168466A
:100E6000FFF7CBF91D492068884233D11C4CE06C58
:100E700040F00100E064E06C022500F00100059004
:100E8000C814CDE9000502AA002003260A2782E83B
:100E9000C1004FF0904869464046FFF759FAA01448
:100EA000CDE9000502AA012082E8C100694640465A
:100EB000FFF74EFAA06D40F08060A065A06D0022A3
:100EC00000F08060059011464320FFF77FFB432030
:100ED000FFF76EFB06B0BDE8F0810000006800403F
:100EE0000010024070B5044680680125022801D038
:100EF000FFF71BFA2946D4F8F00201F019FCD4F8E8
:100F0000F002BDE8704001F0D4BB000010B504460B
:100F1000806930B10648016821F00601016000F0E7
:100F20006BFFD4F8F002BDE8104001F0EBBB00000D
:100F300010ED00E0D0F8F00201F0EEBB10B5044671
:100F400090F8A80201280BD0012084F8A80284F8A8
:100F50002410206802F00BFB002084F8A80210BDCA
:100F6000022010BDD0F8F02200F52C71104601F0DF
:100F7000F2BB10B5044690F8A80201280CD001205D
:100F800084F8A802206802F0C9FA206801F0E6FFA0
:100F9000002084F8A80210BD022010BD10B5044640
:100FA000D0F8F00201F027FCA069002804D0034823
:100FB000016841F00601016010BD000010ED00E085
:100FC0001649B0F5007F0868C0F3412009D0022817
:100FD00005D0086820F4C06040F4806008600020FC
:100FE00070470128FBD0086820F4C06040F400700E
:100FF00008600B483222006850430A4AB0FBF2F006
:10100000401C00E0401E4A69520501D50028F9D174
:1010100048694005E3D50320704700000070004098
:101020007400002040420F000248416841F4806192
:1010300041607047007000400248006800F4C060E2
:1010400070470000007000400248016841F0040150
:1010500001607047001002402DE9F8430446006823
:101060000026774D80035ED5A86D0027C00008D408
:10107000A86D40F08050A865A86D012700F0805051
:101080000090DFF8C091D9F8001041F48071C9F8E0
:101090000010FFF737FA804606E000BFFFF732FA8C
:1010A000A0EB080002282BD8D9F80000C005F5D520
:1010B000D5F8900010F4407014D0216B814211D00B
:1010C000D5F89000D5F8901020F4407041F48031AC
:1010D000C5F89010D5F8901021F48031C5F8901023
:1010E000C5F89000C00711D0FFF70CFA804641F216
:1010F000883907E0FFF706FAA0EB0801494501D956
:1011000003260BE0D5F890008007F3D5D5F89000C2
:10111000216B20F440700843C5F890001FB1A86D02
:1011200020F08050A8652078C00707D0D5F8880047
:10113000616820F003000843C5F888002078800724
:1011400007D5D5F88800A16820F00C000843C5F841
:1011500088002078400707D5D5F88800E16820F09E
:1011600030000843C5F888002078800607D5D5F8F8
:101170008800216920F440600843C5F88800208871
:10118000800507D5D5F88800216A20F4402008435F
:10119000C5F888002088400507D5D5F88800616A21
:1011A00020F440100843C5F888002078400607D591
:1011B000D5F88800616920F440500843C5F88800DC
:1011C0002078000607D5D5F88800A16920F44040B2
:1011D0000843C5F888002088C00507D5D5F88800E1
:1011E000E16920F440300843C5F8880020884FF0BA
:1011F000006180040ED5D5F88800A26A20F0406016
:101200001043C5F88800A06A884203D1E86840F41A
:101210008010E860206840030ED5D5F88800E26AA7
:1012200020F040601043C5F88800E06A884203D18E
:10123000E86840F48010E8603046BDE8F8830000BC
:1012400000100240007000402DE9F0470F460500F5
:1012500058D0404E306800F00700B84209D23068DC
:1012600020F0070038433060306800F00700B842D3
:1012700048D12878384CC0072CD06868032811D092
:10128000022812D0216898B1490500293ADAA168EC
:1012900021F003010143A160FFF734F9804641F2D8
:1012A000883910E021688901EFE721688903ECE7BC
:1012B0008907EAE7FFF726F9A0EB0801494502D9BB
:1012C0000320BDE8F087A068696800F00C00B0EB6F
:1012D000810FEFD12878800705D5A068A96820F094
:1012E000F0000843A060306800F00700B8420BD956
:1012F000306820F0070038433060306800F00700A5
:10130000B84201D00120DCE72878400705D5A06865
:10131000E96820F4E0600843A0602878000706D55B
:10132000A068296920F4605040EAC100A06000F084
:101330001BF8A168094AC1F30311515C01F01F01B8
:10134000C8400749086007480068BDE8F047FFF754
:10135000F7B800000020024000100240643C000882
:10136000740000207C00002070B525490023184639
:101370008A68CC6812F00C0204F00306214C4FEA94
:10138000640509D00C2A05D0042A32D0082A00D1DD
:10139000284670BD012E10D10B681B0704D4D1F86C
:1013A0009430C3F3032302E00B68C3F30313164E18
:1013B00056F82330DAB10C2AEBD1C86800F00300EC
:1013C000022818D0032818D01846CA68CB68C2F380
:1013D0000212C3F306234343521CB3FBF2F2C86864
:1013E000C0F34160401C4000B2FBF0F070BD1846F5
:1013F00070BD204670BD2046E7E72846E5E70000BF
:10140000001002400024F400743C00082DE9F84369
:1014100004006FD0FE4DA86800F00C06E86800F0EC
:1014200003072078C00664D576B10C2E01D1012FB8
:101430000AD0E069002828687AD040F001002860CE
:10144000FFF760F880465DE02868800702D5E06914
:101450000028DED0616A2868000703D5286800F0FC
:10146000F00004E0D5F89400F02202EA1010814266
:1014700016D9084600F07AFC00283BD1286840F0D5
:10148000080028602868616A20F0F000084328609E
:101490006868216A20F47F4040EA0120686016E015
:1014A000286840F0080028602868616A20F0F00091
:1014B000084328606868216A20F47F4040EA0120E0
:1014C000686026B9606A00F051FC0028D5D1FFF7AA
:1014D0004BFFA968CF4AC1F30311515C01F01F0112
:1014E000C840CD490860CD480068FFF729F80028BA
:1014F0007ED12EE0C4E000BFFFF704F8A0EB0800A7
:10150000022876D828688007F6D5286840F00800B9
:1015100028602868616A20F0F00008432860686845
:10152000216A20F47F4040EA0120686011E0FFE773
:1015300020F001002860FEF7E5FF804606E000BFCE
:10154000FEF7E0FFA0EB08000228DAD82868800741
:10155000F6D42078C00740D0082E18D00C2E01D128
:10156000032F14D06068B0F5803F17D0B0F5A02FDE
:10157000286817D020F480302860286820F4802064
:1015800028606068E0B1FEF7BDFF804614E028687F
:10159000800322D56068002872D01EE0286840F4DD
:1015A0008030EDE740F480202860F7E7FEF7AAFFDF
:1015B000A0EB08006428A4D828688003F6D50CE0C6
:1015C000FEF7A0FF804605E0FEF79CFFA0EB0800B9
:1015D000642896D828688003F6D4207880073BD505
:1015E000042E11D00C2E01D1022F0DD0E06801E0A5
:1015F000E2E117E1002828681ED040F480702860DE
:10160000FEF780FF07460CE0286840050CD5E0682F
:101610000028C1D008E000BFFEF774FFC01B0228FD
:1016200093D828684005F7D56868217C20F0FE40F3
:1016300040EA016068600FE020F480702860FEF7E7
:1016400061FF074605E000BFFEF75CFFC01B0228F4
:10165000B1D828684005F7D42078000753D56069D1
:101660000028D5F894003DD0A16900F01002914205
:1016700023D081074FEAC07003D500288CD001E049
:1016800071E190B1D5F8940020F00100C5F8940004
:10169000FEF738FF074604E0FEF734FFC01B1128B1
:1016A00089D8D5F894008007F6D4D5F89400A169BC
:1016B00020F010000843C5F89400D5F8940040F0DD
:1016C0000100C5F89400FEF71DFF074605E000BFC6
:1016D000FEF718FFC01B1128A2D8D5F89400800788
:1016E000F6D510E020F00100C5F89400FEF70AFFDF
:1016F000074604E0FEF706FFC01B112890D8D5F876
:1017000094008007F6D42078400778D5A86D00278C
:10171000C00008D4A86D40F08050A865A86D0127CE
:1017200000F0805000903E480168C90512D401685D
:10173000814641F480710160FEF7E4FE804605E0D9
:10174000FEF7E0FEA0EB080002286BD8D9F80000F5
:10175000C005F5D5A068C10720D0D5F8901000F0DD
:10176000800021F080010143C5F89010207A4007E5
:1017700005D5D5F8900040F00400C5F89000D5F8E4
:10178000900040F0010000BFC5F89000A06841F251
:101790008839D0B1FEF7B6FE804611E0D5F890004A
:1017A00020F00100C5F89000D5F8900020F004006A
:1017B000EAE700BFFEF7A6FEA0EB0801494531D8D5
:1017C000D5F890008007F5D514E0FEF79BFE804623
:1017D00006E000BFFEF796FEA0EB0801494521D8C0
:1017E000D5F890008007F5D4D5F8900020F080005F
:1017F000C5F890001FB1A86D20F08050A865207832
:10180000800634D5A06A0028D5F898001ED00AE0DA
:1018100000100240643C0008740000207C0000209E
:10182000007000408CE040F00100C5F89800FEF721
:1018300069FE074605E000BFFEF764FEC01B0228F4
:101840007ED8D5F898008007F6D510E020F001008A
:10185000C5F89800FEF756FE074604E0FEF752FE74
:10186000C01B02286CD8D5F898008007F6D4E06A2F
:10187000E8B3022811D00C2E75D0286820F08070B3
:101880002860E86820F00300E860E86820F08870CD
:10189000E860FEF737FE044690E0E868226B00F04F
:1018A000030191421FD1616B00F0700209011039F0
:1018B000914218D1A26B00F4FE41B1EB022F12D17C
:1018C000A18F00F4C00249084905A1F50011914219
:1018D00009D194F8401000F0C06049084906A1F110
:1018E0000071814249D00C2E6DD0286800E05BE089
:1018F00020F080702860FEF705FE064605E000BF78
:10190000FEF700FE801B022855D828688001F7D416
:10191000D4E90C016FF00F0202EB01110843A18F13
:101920005204490802EB4151A26B41EA02210843EB
:1019300094F840104FF07E42490802EB416100E00C
:1019400039E00843E968214A11400843E860286803
:1019500040F080702860E86840F08070E860FEF732
:10196000D1FD044605E02EE0FEF7CCFD001B022869
:1019700021D828688001F7D523E02868800120D489
:10198000286840F080702860E86840F08070E86067
:10199000FEF7B8FD044604E0FEF7B4FD001B022884
:1019A00009D828688001F7D50BE000BFFEF7AAFD33
:1019B000001B022802D90320BDE8F88328688001B3
:1019C000F4D40020F8E70120F6E700008C809FF9AE
:1019D00010B5401EB0F1807F01D3012010BD4FF043
:1019E000E02460610F21601701F0F0FD0020A0618C
:1019F00007202061002010BDFEE70000F0B50023A5
:101A00000A24302537261F4611E000BFB4EB107FB3
:101A100002D905EB107C01E006EB107C01F813C045
:101A200001EB430C00015B1C8CF80170DBB29342AC
:101A3000ECD3F0BD10B500220F49104800F0FFFCB8
:101A400008B1FEF772FC0E490C4800F003FF08B124
:101A5000FEF76BFC0B49094800F000FB08B1FEF7EC
:101A600064FC064800F070FF002803D0BDE8104079
:101A7000FEF75BBC10BD000000000020AC010020A0
:101A80006001002060000020FEE770472DE9F84F5C
:101A9000044640F68F7A40F2064B48F60F7940F242
:101AA000024856E1B0F8441011F00F0637D030F874
:101AB000267039047ED530F8261001EA0A0141F07B
:101AC000800120F8261006EB860004EBC00595F88F
:101AD000740105F5B47500286DD0E87802286BD044
:101AE0002878226832F8201048F68F73194048F29F
:101AF000C003194322F820102978206830F82120EB
:101B00005204B0F8502002EB00037DD508EBC10170
:101B1000595A8905890D009177D02A89C3E0C906F1
:101B20002BD4028802EA090242F4004101802068B5
:101B300004F12805B0F850102A78014408EBC200DF
:101B4000085AC0F309016164E06B0844E0630021B6
:101B50002046FEF7BFFD94F824000028A1D0A86914
:101B600000289ED194F82400216840F08000A1F85C
:101B70004C00002084F82400EBE0018804F5B475E3
:101B80000A051ED5B0F850102A7801440BEBC200AC
:101B9000085A04F52C71C0F30903EB61EA88206848
:101BA00001F0CFFC2068018801EA0A0141F08001C0
:101BB000018002E092E059E066E02046FFF7D2F9AA
:101BC000C7E00904D8D5018801EA0A0141F0800183
:101BD00001802068B0F850102A7801440BEBC20055
:101BE000085A83059B0DEB610DD0696959B1EA88EC
:101BF000206801F0A6FCE969686908446861002171
:101C00002046FEF770FD01E045E043E02068B0F8B3
:101C100050100844296900F2064051B13E2910D8FD
:101C20004A08C90700D0521C4FF6FF7101EA822111
:101C30000FE0018821F4F8410180018841F400415E
:101C400007E04A09C90600D1521E4FF4004141EA9B
:101C500082210180216808884BF68F72104080F441
:101C6000405048F280021043088072E02068B0F8CB
:101C700050102B780A180BEBC301515A8905890DB6
:101C8000009114D0EA880EE03A4629462046FEF735
:101C900088FD00900BE00BEBC101595A8905890DB5
:101CA000009104D06A896969009B01F04AFCE969E6
:101CB00000980844E8616969009808446861A86967
:101CC00018B129690098814204D929782046FEF785
:101CD0000AFD03E02946206801F0B6F9380638D538
:101CE000226806EB860004EBC00132F8260000EA09
:101CF000090040F4004022F8260091F82B0028311A
:101D0000022801D1F80520D42068B0F8502013181B
:101D100008788A6908EBC000185AC0F309008242AB
:101D20000CD9121A8A610BD04A6902444A61CA6905
:101D30001044C861206801F087F90AE0002088613A
:101D400009782046FEF7C6FC03E03A462046FEF737
:101D500096FD2068B0F8441009043FF5A3AE0020BA
:101D600000F000B818BCBDE8E08F7047F8B51C4D16
:101D700006460024A86DC00002D5FFF75DF90DE00E
:101D8000A86D40F08050A865A86D00F080500090CC
:101D9000FFF752F9A96D21F08051A965B0F5007FD8
:101DA00004D0802E07D94FF003040AE0802E08D912
:101DB000A02E01D804E001D1022402E0702E00D14F
:101DC00001240848016821F00701214301600068EF
:101DD00000F00700A04201D00120F8BD0020F8BDAE
:101DE000001002400020024070470178407841EA2C
:101DF00000207047FEF78CBB10B5A4B044216846A4
:101E0000FEF7FBF914211EA8FEF7F7F9342111A8FB
:101E1000FEF7F3F94FF40070FFF7D2F814200090AA
:101E20000520029001200024CDE90704B02009908C
:101E30000B946846FFF7EAFA0F20CDE91E042094C0
:101E4000219402211EA82294FFF7FEF94FF40050BE
:101E500011904FF040601B9011A8FFF7FDF8FFF7BD
:101E6000F3F824B010BD00000D48016841F4700182
:101E700001600C48016841F00101016000218160AE
:101E80000268094B1A4002608214C260026822F4A0
:101E90008022026081610249C00380390860704776
:101EA00088ED00E000100240FFFFF6EA2DE9F04166
:101EB0000C46D0F8C422D0F8BC12D1B104EB840691
:101EC00000EB86050027AB693BB102EBC602926BC3
:101ED000B3FBF2F602FB16326AB14F65D0F8C002CE
:101EE00003691BB1886C2246503198470020BDE839
:101EF000F0810320FBE700231A462146AF6100F082
:101F000083FCF3E770B5D0F8BC4205465CB100F045
:101F100055FBE064D5F8C012606CCA6804F14C014E
:101F20009047002070BD032070BD70B5044681212C
:101F300000F0A8FA002525870121204600F0A2FA2A
:101F4000A4F878518221204600F09CFAA4F84C5065
:101F5000A4F84E50D4F8BC0248B1D4F8C00204F53D
:101F60002F7440688047206801F0FAFC256000204B
:101F700070BD10B5D0E9AF4159B194F84000FF28C9
:101F800007D08B6894F8412021469847FF2084F8B9
:101F90004000002010BD00000A2101800048704769
:101FA000880000204321018000487047D8000020AD
:101FB00043210180004870479400002043210180A4
:101FC000004870471C0100202DE9F04104465C20C8
:101FD00001F0A0FD05004FF000082DD010270126CC
:101FE0004023022281212046C4F8BC5200F03EFB6F
:101FF0002687402302220121204600F037FBA4F867
:102000007861A4F84E70082303228221204600F054
:102010002DFBA4F84C60D4F8C00200688047C5F8D6
:102020005480C5F858804023012120466A6C00F096
:1020300030FB0020BDE8F0810220C4F8BC82F9E743
:1020400010B5D0F8BC1239B1027C4A6C4023012192
:1020500000F01FFB002010BD032010BD19B1C0F817
:10206000C0120020704703207047D0F8BC024164C2
:1020700000207047D0F8BC020265816400207047E0
:102080002DE9FC410546D0F8BC7200208DF8000017
:10209000ADF80400064608780C4610F0600121D027
:1020A00020293DD1E288AAB10006607807D5D5F88D
:1020B000C0128B6839469847E288394628E087F88D
:1020C0004000A07987F84100E2883946284600F0B0
:1020D00068F82AE0D5F8C012607800228B682146A3
:1020E000984722E0607830B101281ED00A2809D034
:1020F0000B2815D110E095F89C02032810D102227C
:1021000001A905E095F89C02032809D1012269463E
:10211000284600F060F808E095F89C02032804D0F7
:102120002146284600F032F803263046BDE8FC81FF
:1021300010B5D0F8BC12012211B14B6D13B10BE0F8
:10214000032010BD01224A650A6DC2620B6D8A6CC4
:10215000812100F059FB0022104610BD10B5D0F8C7
:10216000B8220AB152689047002010BD134610B53E
:102170000A46002100F08DFA002010BD134610B56C
:102180000A46002100F040FB002010BD10B50446B7
:10219000802100F010FB2046BDE81040002100F037
:1021A0000ABB10B50323C0F85821C0F89432C0F818
:1021B0005C2113460A46002100F06BFA002010BD96
:1021C00010B505210023C0F894121A46194600F0F4
:1021D00060FA002010BD10B502238261C0F894326D
:1021E000C26113460A46002100F00EFB002010BD1C
:1021F00010B504210023C0F894121A46194600F0C5
:1022000003FB002010BD000010B50A46024903A0E0
:1022100000F0F1F8004810BDD007002043444320EF
:10222000436F6E666967000012200880004870479F
:102230002400002010B50A46024903A000F0DBF894
:10224000004810BDD007002043444320496E746508
:1022500072666163650000000420088000487047D2
:102260002000002010B50A46024903A000F0C3F880
:10227000004810BDD007002053544D6963726F654C
:102280006C656374726F6E696373000010B50A4603
:10229000024903A000F0AFF8004810BDD0070020AD
:1022A00053544D3332205669727475616C20436FFC
:1022B0006D506F727400000010B51A2008800A4833
:1022C0000168001D0468001D0068081809D0082274
:1022D0000649FFF793FB0549042210312046FFF71A
:1022E0008DFB0248801E10BD9075FF1F4600002028
:1022F0000C2008800048704738000020F8B50446DC
:102300000020ADF8000048880D46010A062947D094
:1023100006DC01290FD0022912D0032962D11DE069
:10232000072946D00F295DD1D4F8B402C26920E054
:10233000694690473BE0D4F8B412207C0A68F7E77E
:10234000207C02260028D4F8B80205D0C16A68466D
:1023500088470146467036E0816AF8E7C0B2062831
:1023600040D2DFE800F003090D111519D4F8B402CA
:102370004268B2B3207CDBE7D4F8B4028268F8E7A5
:10238000D4F8B402C268F4E7D4F8B4020269F0E702
:10239000D4F8B4024269ECE7D4F8B4028269E8E701
:1023A000207CF0B9D4F8B802416B684688470146F2
:1023B00009E0207CA8B9D4F8B802016B68468847C8
:1023C000014607204870EA888AB1BDF8000040B194
:1023D000824200D90246ADF800202046FFF7FBFEFE
:1023E000F8BDFFE729462046FFF7D0FEF8E7204674
:1023F000FFF7FEFEF4E770B5002300281ED000258D
:10240000044602E06D1CEDB2641C2678002EF9D162
:10241000022404EB450414801278CA545B1C032286
:10242000CA5400245B1C06E0CA545B1CDAB28C540C
:10243000521CD3B2401C0278002AF5D170BD78B18D
:102440000023C0F8B832C0F8C032C0F8CC3209B1AD
:10245000C0F8B412012180F89C12027000F0B2B8EA
:102460000320704710B50024D0F8C402FEF76BF9C2
:1024700030B1012801D0022801D0032400E001245A
:10248000204610BD10B50024D0F8C402FEF735F97F
:1024900030B1012801D0022801D0032400E001243A
:1024A000204610BD70B51646044649B1D4F8B802AE
:1024B00042691AB194F89C02032842D0032070BDEF
:1024C000D4F89412002504F11400022932D1D0E985
:1024D00002318B4206D95A1A826031462046FFF7F4
:1024E0004DFE0FE0994214D14068884211D3D4F8D0
:1024F000981288420DD2002211462046FFF73EFE78
:10250000C4F8985200231A461946204600F0C1F834
:1025100010E0D4F8B802C16829B194F89C020328ED
:1025200001D1204688478021204600F044F920460A
:10253000FFF746FE94F8A002012806D184F8A052C5
:1025400003E0204690470028B9D1002070BD10B5A7
:102550001346044649B1D4F8B80282691AB194F816
:102560009C02032824D0032010BDD4F8941204F553
:10257000AA70032920D1D0E9021291420AD98A1AFD
:102580008260C068824200D3024619462046FFF7A7
:10259000EDFD11E0D4F8B802016929B194F89C026C
:1025A000032801D1204688472046FFF721FE03E09B
:1025B000204690470028D7D1002010BDD0F8C40293
:1025C000FEF777BA10B50446FEF72EFD1D491E48EA
:1025D000C1F8F042C4F8C412086008204860022024
:1025E00088600861002048618861C8610862084607
:1025F000FEF7BCFB08B1FDF798FE0022D4F8C40238
:102600001823114604F53174FEF746F858230022CA
:1026100080212068FEF740F8C02300228121206835
:10262000FEF73AF84FF48873002201212068FEF784
:1026300033F84FF48073002282212068FEF72CF8D3
:10264000002010BDDC040020006800400A0601F0F4
:102650007F01D0F8C40201EB810100EBC10002D57B
:1026600090F82A00704790F86A01704770B51D46CF
:1026700013460024D0F8C4022A46FEF723FA30B1EC
:10268000012801D0022801D0032400E001242046C3
:1026900070BD10B50024D0F8C402FEF743FA30B183
:1026A000012801D0022801D0032400E001242046A3
:1026B00010BD70B50125044680F89C520020C4F876
:1026C00094026060C4F8A402D4F8BC0228B1D4F823
:1026D000B80200214268204690470022402311465C
:1026E0002046FFF7C3FF4026A4F86451334600227A
:1026F00080212046C4F86061FFF7B8FFA584002060
:10270000266270BD90F89C12042903D190F89D12A6
:1027100080F89C120020704710B590F89C12032995
:1027200004D1D0F8B812C96901B18847002010BDA2
:1027300001740020704710B50024D0F8C402FEF7E1
:10274000FDFB30B1012801D0022801D0032400E0B4
:102750000124204610BD70B5044600F2AA200546AB
:1027600000F062F80120C4F89402B4F8B002C4F892
:10277000980294F8AA0210F01F010AD001290ED085
:10278000022912D000F080012046BDE8704000F020
:1027900012B829462046BDE8704000F0D7B8294657
:1027A0002046BDE8704000F0FBB929462046BDE850
:1027B000704000F055B910B50024D0F8C402FEF7FF
:1027C000CAF930B1012801D0022801D0032400E069
:1027D0000124204610BD10B50024D0F8C402FEF735
:1027E000C8FB30B1012801D0022801D0032400E049
:1027F0000124204610BD90F89C1280F89D120421FF
:1028000080F89C120020704710B50024D0F8C40254
:10281000FEF7DAF930B1012801D0022801D00324F3
:1028200000E00124204610BD70B5054611F8010BEB
:102830002870087868704C1C2046FFF7D6FA68802C
:10284000A41C2046FFF7D1FAA880A01CFFF7CDFA00
:10285000E88070BD38B504460020ADF8000049B1ED
:10286000C4F8B812C96A19B168468847C4F8CC02DE
:10287000002038BD032038BD02460320D2F8B8320C
:10288000002B02D01B681046184770472DE9F04115
:102890000F462C4E8978002504463170012906D94F
:1028A00039462046FFF772FC0320BDE8F08194F81A
:1028B0009C0202280CD003281DD039462046FFF781
:1028C00065FC31782046FFF749FC03252846ECE7F4
:1028D00099B320466160FFF7CFFF050004D0394669
:1028E0002046FFF753FCF1E72046FFF781FC032069
:1028F00084F89C02EAE74FF00208C1B160688842A0
:102900001BD0C1B22046FFF729FC31782046616018
:10291000FFF7B2FF050010D039462046FFF736FC1E
:1029200021792046FFF71AFC84F89C82CEE784F8D0
:102930009C8220466160FFF711FC2046FFF758FC9F
:10294000C4E7000084000020FFF745BF2DE9F041F7
:102950000A78002512F0600208D0202A01D0402A0F
:1029600071D1D0F8B8229268904731E04B780022BC
:1029700001260A2B67D2DFE803F0415E665866083D
:1029800005662D29FFF7BAFC5FE004468888D8B9B0
:10299000C888C8B94888802816D200F07F0794F804
:1029A0009C02032810D084F89E7239462046FFF717
:1029B000C2FE2046FFF71CFC1FB1022084F89C02D7
:1029C00043E084F89C6240E020463CE0FFF75EFF75
:1029D00005463AE0CB88012B35D190F89C32012B8B
:1029E00004D0022B02D0032B2DD104E082600122FF
:1029F00000F1080116E00122011D13E090F89C226D
:102A0000012A03D0022A01D0032A1CD1CA88022A33
:102A100019D1C660D0F8A41209B10321C160022205
:102A200000F10C01FFF7D7FB0FE0498801290CD119
:102A3000C0F8A46211E090F89C32012B08D0022B60
:102A400006D0032B04D0FFF7A1FB2846BDE8F08198
:102A500049880129F9D1C0F8A422FFF7C9FBF4E79E
:102A60002DE9F0410D46044628780026097910F03A
:102A700060000BD0202801D040286DD1D4F8B802D6
:102A80002946826820469047064686E06878A8B3C3
:102A9000012822D003287CD194F89C02022802D07D
:102AA000032876D10BE0002973D0802971D020460D
:102AB000FFF781FE80212046FFF77DFE6DE06888EC
:102AC00038B931B1802904D0E88810B92046FFF721
:102AD00072FE2046FFF78CFB5FE094F89C02022810
:102AE000E1D0032855D16888A8BB480602D020460B
:102AF000FFF7B8FC2046FFF77BFBBFE7FFE794F842
:102B00009C020027022802D0032842D111E009B11B
:102B100080293ED1080601F07F0000EB800004EB25
:102B2000800101D5143101E001F5AA7102220F6084
:102B30002BE0080601F00F0000EB800004EB8000A2
:102B40000BD5808C40B101F07F0000EB800004EBDE
:102B5000800514350CE020E01BE0B0F86401C0B142
:102B600001F07F0000EB800004EB800505F5AA75FD
:102B700041B1802906D02046FFF768FD10B1012041
:102B8000286000E02F60022229462046FFF723FB41
:102B900003E029462046FFF7F9FA3046BDE8F08108
:102BA00070B50646087800240D4610F0600003D08A
:102BB000202801D0402817D196F89C02012803D084
:102BC000022801D003280FD1287901280CD8D6F883
:102BD000B8028268304690470446E888204306D110
:102BE0003046FFF705FB02E03046FFF7CFFA2046FC
:102BF00070BD2DE9F0470C78002630F8243048F6F7
:102C00008F121340CA78002A7DD0012A7CD0022A74
:102C100002D0032A7FD0012648F28002134320F815
:102C200024300D7830F8254048F68F731C402C4333
:102C3000144320F825400D7B48F2C00C48F6BF74C1
:102C40004CF280074BF68F79EDB391F80080C246C5
:102C500030F8285048F280181D4045EA080520F851
:102C60002A50B0F8505091F80080054405EBC80593
:102C7000B1F8088028F00108A5F80084B0F8505099
:102C800091F80080054405EBC805B1F80A8028F0EA
:102C90000108A5F804844D78002D0D7830F82580C2
:102CA0004FEA48487DD0B8F1000F07DA30F82580A8
:102CB00008EA030848EA070820F825800F7830F86A
:102CC00027506D0600E02CE006D530F827501D4057
:102CD00045EA0C0520F82750CB780D78012B30F809
:102CE000253003EA040301D083F02003134320F8C6
:102CF00025300B7830F8231001EA0901114320F840
:102D00002310304602E003E008E004E0BDE8F0876D
:102D100043F4007380E743F4C0637DE743F48063CA
:102D20007AE74D782DB3B0F850500F78054405EB95
:102D3000C705CF8827F00107A5F800740F7830F891
:102D400027506D0606D530F827501D4045EA0C0582
:102D500020F82750CB78012B06D00B7830F82310C1
:102D6000214081F02001C9E70B7830F82310214081
:102D7000C4E7B0F850400D78044404EBC504CD8896
:102D800025F00105A4F80454B0F850400D7804442F
:102D900004EBC5040D6904F2064475B13E2D14D848
:102DA00000E030E04FEA550CED0701D00CF1010CCA
:102DB0004FF6FF7505EA8C2511E0258825F4F845C6
:102DC0002580258845F4004509E04FEA551CED06AD
:102DD00001D1ACF1010C4FF4004545EA8C2525806A
:102DE0000D7830F82540640405D530F825401C40A6
:102DF0003C4320F825400B7830F8231001EA090104
:102E000081F440517AE7B8F1000F07DA30F82580F5
:102E100008EA030848EA070820F825800F7830F808
:102E200027506D0606D530F827501D4045EA0C05A1
:102E300020F827500D7830F8253003EA090383F491
:102E40004053134320F825308EE7002070472DE9CA
:102E5000F04391F80C804F780A7848F6BF7C4BF627
:102E60008F7948F2800348F2C0054CF2800648F69C
:102E70008F74B8F1000F28D0002F30F822704FEA7D
:102E8000474748D0002F05DA30F8227027403743F3
:102E900020F822700A7830F822707F0605D530F8C5
:102EA000227027402F4320F822700D7830F825201B
:102EB0002240324320F825200C7830F8242002EA02
:102EC0000C021A4320F824201AE07FB130F8226067
:102ED000760605D530F8226026402E4320F8226081
:102EE0000A7830F8221001EA0C010EE030F8225086
:102EF0006D0405D530F822502540354320F8225086
:102F00000A7830F8221001EA0901194320F822104A
:102F10000020BDE8F083002F05DA30F8227027404A
:102F2000374320F822700A7830F82260760605D5FB
:102F300030F8226026402E4320F822600E7830F8C8
:102F4000262022402A4320F826200C7830F824201E
:102F500002EA09021A4320F82420C1E730F8581F7A
:102F600041F4004101800020704730F8581FC1F340
:102F70000E01018000207047012120F8401F002130
:102F80000180818001820846704730F8401F4BF66F
:102F9000807291430180002070470020704730B557
:102FA0000A7BB2BB4A7848F68F7548F28004C2B1FA
:102FB0000B7830F82320520607D530F823202A401A
:102FC00048F2C0052A4320F82320CA78012A20D0DD
:102FD0000A7830F8221048F6BF73194081F02001BA
:102FE00014E00A7830F822305B0407D530F822303C
:102FF0002B404CF280052B4320F822300A7830F821
:1030000022104BF68F73194081F44051214320F870
:103010002210002030BD10B54A780978002A48F205
:10302000800330F8212005D048F6BF74224082F09A
:10303000100204E04BF68F74224082F480521A434F
:1030400020F82120002010BD2DE9F04F0D464A78D0
:10305000097B04464FF0000A48F68F7948F2800B4E
:103060004FF6FF774FF40048012A09D000297DD0A0
:10307000E87802287BD001287AD0012000F04BBAF2
:10308000AE692869864200D9064681B1E9780229ED
:103090001CD0287834F820104906B4F85010214488
:1030A00001EBC00071D5A0F806646A8929E1B3B2CA
:1030B000EA882046696900F061FAB4F8500029787E
:1030C000204400EBC100A0F8026436E1296A814285
:1030D0006FD9297834F8210048F2801200EA0900FB
:1030E000104324F821002E69286A801B2862287862
:1030F00034F820104906697876D511B1012921D01C
:1031000027E0B4F85010214401EBC00000F2064063
:103110004EB13E2E0FD87108F20700D0491C07EAC5
:103120008121018015E0018821F4F84101800188A6
:1031300041F40041F5E77109F20600D1491E48EA61
:103140008121EEE7B4F85020111901EBC000A0F87E
:1031500006646A89B3B22046696900F00FFA6869AB
:1031600030446861296A2869814202E0EEE00DE19D
:1031700078E102D9091A296202E00846C5F820A0C0
:10318000697819B1012924D02BE0B7E0B4F85010C8
:103190002A78214401EBC20101F2024150B13E28DC
:1031A00010D84208C30700D0521C07EA82220A80C6
:1031B00017E08EE00A8822F4F8420A800A8842F476
:1031C0000042F4E74209C30600D1521E48EA8222B7
:1031D000EDE7B4F850102A78214401EBC201A1F8C0
:1031E00002042A896FE0FFE711B1012921D027E00D
:1031F000B4F85010214401EBC00000F202404EB17F
:103200003E2E0FD87108F20700D0491C07EA812131
:10321000018015E0018821F4F8410180018841F422
:103220000041F5E77109F20600D1491E48EA812103
:10323000EEE7B4F85010214401EBC000A0F802649E
:103240002A89B3B22046696900F098F96869304468
:103250006861296A2869814202D9091A296202E053
:103260000846C5F820A0697811B1012922D029E0CB
:10327000B4F850102A78214401EBC20101F2064152
:1032800048B13E280FD84208C30700D0521C07EAB5
:1032900082220A8016E00A8822F4F8420A800A880C
:1032A00042F40042F5E74209C30600D1521E48EA43
:1032B0008222EEE7B4F8502011192A7801EBC201FE
:1032C000A1F806046A8983B22046696900F056F9BC
:1032D00033E02A7834F8220048F68F63184040EA39
:1032E0000B0024F82200B4F850002A78204400EBA8
:1032F000C2008BB2A0F802342A89E5E7A0F8026484
:103300002A89B3B22046696900F038F9687810B1AB
:10331000012808D011E0297834F8210048F2C002D1
:1033200000EA090006E0297834F821004CF2800216
:1033300000EA0900104324F82100297834F821001C
:1033400048F6BF72104080F03000DEE0A9692869BD
:10335000814202D9091AA961B5E00846C5F818A04A
:10336000B1E0088820F4F8400880088840F4004064
:103370000AE03E2875D84208C00700D0521C07EA70
:10338000822001E048EA82200880B6E092B9B4F8D1
:1033900050002978204400EBC100296900F2024066
:1033A00069B13E2913D84A08C90700D0521C07EA60
:1033B00082210180687888B1012832D03AE0018802
:1033C00021F4F8410180018841F40041F1E74A0904
:1033D000C90600D1521E48EA8221EAE7B4F850003B
:1033E0002978204400EBC100296900F2064049B168
:1033F0003E290FD84A08C90700D0521C07EA82218B
:10340000018017E0018821F4F8410180018841F42E
:103410000041F5E74A09C90600D1521E48EA822157
:10342000EEE7B4F850100819297800EBC100298A9A
:10343000A0F80614E869B0B3297834F821004204F2
:1034400001D5420603D444F24002104255D134F86B
:10345000210048F2C00200EA0900104324F82100CC
:103460004BE03CE0A9692869814202D9091AA961A7
:1034700002E00846C5F818A08AB9B4F850102A78B6
:10348000214401EBC20101F2024168B13E2813D888
:103490004208C30700D0521C07EA82220A806978DA
:1034A00089B1012921D028E00A8822F4F8420A8053
:1034B0000A8842F40042F1E74209C30600D1521ED5
:1034C00048EA8222EAE7B4F850102A78214401EB56
:1034D000C20101F2064100287FF44BAF41E74209E7
:1034E000C0067FF44FAF521E4CE7B4F850201119BC
:1034F0002A7801EBC201A1F80604297834F82100EA
:103500004BF68F72104080F4405040EA0B0024F8D4
:1035100021000020B2E530BCBDE8C08F0021A0F83A
:1035200044104BF68071A0F8401000207047000056
:103530000148FDF763BB0000DC040020B0F8440044
:10354000704710B510445C0800F5806008D030F872
:10355000022B01F8012B120A01F8012B641EF6D18F
:10356000DA0701D00088087010BD0020704711B93B
:103570008021A0F84C1000207047000010B55B1CA3
:1035800010445B0800F580600AD000BF11F8012BE1
:1035900011F8014B42EA042220F8022B5B1EF5D100
:1035A00010BDFEE70FB4084B10B504A902AA03989A
:1035B00000F02CF8044602A9002000F0CBF92046C8
:1035C00010BC5DF814FB0000553900080907090E0E
:1035D000002804DB00F1E02080F80014704700F0C0
:1035E0000F0000F1E02080F8141D704702E008C8C9
:1035F000121F08C1002AFAD170477047002001E06D
:1036000001C1121F002AFBD1704700002DE9FF4FB6
:103610008BB088460546002606E025280BD0DDE95C
:103620000D1290476D1C761C28780028F5D10FB03C
:10363000304600F063B90024A146A2460122AE49FB
:1036400000E0044315F8013F203B02FA03F0084272
:10365000F7D128782A2810D06FF02F022878A0F10F
:103660003001092915D809EB890102EB410144F029
:10367000020400EB01096D1CF0E758F8041B5FEA37
:10368000010903D544F40054C9F1000944F00204CF
:103690006D1C28782E2817D115F8010F44F004046A
:1036A0002A280ED06FF02F022878A0F130010929C6
:1036B0000AD80AEB8A0102EB410100EB010A6D1CFA
:1036C000F2E758F804AB6D1C28786C280FD006DCA4
:1036D0004C2817D068280DD06A2814D104E074282B
:1036E00010D07A280FD10DE044F400140AE044F41D
:1036F000801401E044F440146978814202D104F559
:1037000080146D1C6D1C2878692865D006DC0028A3
:103710008DD0632827D0642806D15DE06E2808D0BC
:1037200073282AD0752877D0DDE90D129047761CD2
:10373000E0E0C4F30250022809D003280DD0D8F8E5
:10374000001004280DD00E6008F10408D2E0D8F86B
:103750000010F217C1E90062F6E7D8F800100E80F9
:10376000F2E70E70F0E718F8041B8DF80010002047
:103770008DF80100EB46012003E058F804BB4FF040
:10378000FF3061074FF0000701D40AE07F1C574566
:103790000DDA8742FADB1BF807100029F6D106E0A4
:1037A0007F1C8742FCDB1BF807100029F8D1DDE9FC
:1037B0000D23A9EB07008146214600F0B4F8304400
:1037C000C61904E0DDE90D121BF8010B90477F1EBE
:1037D000F8D22146484688E058F8040BC4F3025159
:1037E0004FF00A0B032900D100B2042900D140B2E6
:1037F000002802DA40422D2102E0210505D52B21C7
:103800008DF82410012104E006E0E10710D020210A
:10381000F6E708AF089113E058F8040BC4F302511F
:103820004FF00A0B032900D180B2042900D1C0B2A5
:103830000021EEE75946FCF7EBFC303107F8011D9B
:103840000028F7D1ADEB070000F1200B600702D58F
:1038500024F4803401E04FF0010ADA4502DDAAEBDE
:103860000B0000E00020824600EB0B0108980144A9
:10387000A9EB01000A90E00306D4DDE90D232146FF
:103880000A9800F050F806444FF0000908E009A932
:1038900011F80900DDE90D12904709F10109761CC4
:1038A00008998945F3DBE0030CD5DDE90D232146BA
:1038B0000A9800F038F8064404E0DDE90D123020E3
:1038C0009047761CBAF10001AAF1010AF5DC05E087
:1038D000DDE90D1217F8010B9047761CBBF10001D2
:1038E000ABF1010BF4DC0A982146DDE90D2300F071
:1038F00008F806446D1C97E60928010030BCBDE8B5
:10390000C08F2DE9F041044600251E461746880465
:1039100004D405E039462020B0476D1C641EF9D55B
:103920002846BDE8F0812DE9F041044600251E46F9
:103930009046C80301D5302700E02027880404D52D
:1039400005E041463846B0476D1C641EF9D528464F
:10395000BDE8F0810A68531C0B60107070470000CE
:1039600010B5002821D0114B0022001F196803E078
:10397000814203D80A4649680029F9D152B1136837
:10398000841A9C4204D1006818441060104602E07A
:10399000506000E0186039B102680B1A934203D1FD
:1039A0000B681A4402604968416010BD980100200C
:1039B00086B0FCF7B5FDFEF71FFA14216846FCF748
:1039C0001CFC5248C16C41F00401C164C16C01F09F
:1039D00004010591C16C41F00101C164C06C4FF05C
:1039E000904400F00100059048F2FF700090002024
:1039F0000190029069462046FCF7AAFCFEF71AF8EF
:103A00004FF48066424D77014FF400784FF480798F
:103A100031462046FCF771FD20B1287810B900200E
:103A200000F00EF939462046FCF767FD20B16878B2
:103A300010B9012000F004F901212046FCF75DFDDA
:103A400020B1A87810B9022000F0FAF8022120462F
:103A5000FCF753FD20B1E87810B9032000F0F0F82E
:103A600041462046FCF749FD20B1287910B90420D1
:103A700000F0E6F849462046FCF73FFD20B16879A2
:103A800010B9052000F0DCF808212046FCF735FDD0
:103A900020B1A87910B9062000F0D2F80421204600
:103AA000FCF72BFD20B1E87910B9072000F0C8F829
:103AB00080212046FCF721FD20B1287A10B908208A
:103AC00000F0BEF840212046FCF717FD20B1687ACF
:103AD00010B9092000F0B4F820212046FCF70DFDB4
:103AE00020B1A87A10B90A2000F0AAF810212046C7
:103AF000FCF703FD20B1E87A10B90B2000F0A0F824
:103B000000F03EF80A20FCF711FC81E700100240AB
:103B1000A0010020F0B50B30154D20F00701002466
:103B2000144A0FE003688B420BD38B4205D95E1A0F
:103B300043184768C3E9006700E04368136002C0A8
:103B400004E0021D10680028ECD12046002802D1B4
:103B5000286808B10020F0BD064A07481060074AEF
:103B6000121A22F00702C0E9002401202860D7E7DA
:103B70009C01002098010020A4110020A013002027
:103B800070B54FF090454FF480612846FCF7B5FCC6
:103B900000B10120294C4FF4004120702846FCF769
:103BA000ACFC00B10120607001212846FCF7A5FCA7
:103BB00000B10120A07002212846FCF79EFC00B154
:103BC0000120E0704FF400712846FCF796FC00B12C
:103BD000012020714FF480712846FCF78EFC00B163
:103BE0000120607108212846FCF787FC00B1012004
:103BF000A07104212846FCF780FC00B10120E0718F
:103C000080212846FCF779FC00B101202072402178
:103C10002846FCF772FC00B1012060722021284682
:103C2000FCF76BFC00B10120A07210212846FCF7C4
:103C300064FC00B10120E07270BD0000A001002012
:103C400008B500210246009104A16846FFF7AAFCCE
:103C500003216846FCF754FB08BD00007325322E93
:103C600030640000000000000000000001020304B6
:103C700006070809A0860100400D0300801A06000F
:103C800000350C0040420F0080841E0000093D00FA
:103C900000127A000024F40000366E010048E801AA
:103CA000006CDC02C43C000800000020A001000001
:103CB000600200088C3D0008A001002000160000F2
:103CC000FC3500081329221B0859041A65041A8DB3
:103CD000041AB9041A09041A35041AF104100B0461
:103CE0000309041201010202021640830440572610
:103CF000020102030114050F0C1C01071017210318
:103D00001A1A0313C1021B08BD041AB9041AE504E8
:103D10001AFD041113093D194311B210130A0629A3
:103D20004B2A40181C090243671125C032090419A7
:103D30007B12011305241610010524011809010442
:103D40002402020524067C150582030815100904C7
:103D50000133020A2E0705010240072A81070944A0
:103D6000442A07440A3B044413C91F1B082B041BA5
:103D70008120F8311A730C13AD1E1B080508C11AF7
:0C3D8000B1101AA5041ABD049A991C0089
:040000050800018D61
:00000001FF
